{
    "contractName": "Function",
    "abi": [
        {
            "inputs": [],
            "name": "returnLocalVariable",
            "outputs": [
                {
                    "internalType": "uint256",
                    "name": "",
                    "type": "uint256"
                }
            ],
            "stateMutability": "view",
            "type": "function"
        },
        {
            "inputs": [],
            "name": "returnStateVariable",
            "outputs": [
                {
                    "internalType": "uint256",
                    "name": "",
                    "type": "uint256"
                }
            ],
            "stateMutability": "view",
            "type": "function"
        },
        {
            "inputs": [],
            "name": "state_var",
            "outputs": [
                {
                    "internalType": "uint256",
                    "name": "",
                    "type": "uint256"
                }
            ],
            "stateMutability": "view",
            "type": "function"
        }
    ],
    "bytecode": "6080604052600a600055348015601457600080fd5b50609b806100236000396000f3fe6080604052348015600f57600080fd5b5060043610603c5760003560e01c8063c0f61afc146041578063cd3c1ed4146057578063dc80e1fb14605d575b600080fd5b6000545b60405190815260200160405180910390f35b60146045565b60456000548156fea26469706673582212209c6ca18dd1e0b90d16f78811b00c236960aabcdac87300a5cc6ecb278cb1958864736f6c634300080c0033",
    "sourcePath": "/Users/shanajames/Downloads/Work/codedamn-lessons/Function.sol",
    "compiler": {
        "name": "solc",
        "version": "0.8.12+commit.f00d7308"
    },
    "functionHashes": {
        "returnLocalVariable()": "cd3c1ed4",
        "returnStateVariable()": "c0f61afc",
        "state_var()": "dc80e1fb"
    },
    "gasEstimates": {
        "creation": {
            "codeDepositCost": "31000",
            "executionCost": "22187",
            "totalCost": "53187"
        },
        "external": {
            "returnLocalVariable()": "180",
            "returnStateVariable()": "2247",
            "state_var()": "2305"
        }
    }
}