{
    "contractName": "simpleContract",
    "abi": [
        {
            "inputs": [],
            "stateMutability": "nonpayable",
            "type": "constructor"
        },
        {
            "inputs": [],
            "name": "getter",
            "outputs": [
                {
                    "internalType": "int256",
                    "name": "",
                    "type": "int256"
                }
            ],
            "stateMutability": "view",
            "type": "function"
        },
        {
            "inputs": [],
            "name": "increment",
            "outputs": [],
            "stateMutability": "nonpayable",
            "type": "function"
        },
        {
            "inputs": [
                {
                    "internalType": "int256",
                    "name": "num",
                    "type": "int256"
                }
            ],
            "name": "setter",
            "outputs": [],
            "stateMutability": "nonpayable",
            "type": "function"
        }
    ],
    "bytecode": "608060405234801561001057600080fd5b50600a600055610115806100256000396000f3fe6080604052348015600f57600080fd5b5060043610603c5760003560e01c80630ba67086146041578063993a04b7146053578063d09de08a146068575b600080fd5b6051604c3660046076565b600055565b005b60005460405190815260200160405180910390f35b6051600054604c90600460a4565b600060208284031215608757600080fd5b5035919050565b634e487b7160e01b600052601160045260246000fd5b600080821280156001600160ff1b038490038513161560c35760c3608e565b600160ff1b839003841281161560d95760d9608e565b5050019056fea2646970667358221220d2e446df05d2da8e7f607f47c6ee0343d25f7d4482d3737dc798e90c060a85f164736f6c634300080c0033",
    "sourcePath": "/Users/shanajames/Downloads/Work/codedamn-lessons/simpleContract.sol",
    "compiler": {
        "name": "solc",
        "version": "0.8.12+commit.f00d7308"
    },
    "functionHashes": {
        "getter()": "993a04b7",
        "increment()": "d09de08a",
        "setter(int256)": "0ba67086"
    },
    "gasEstimates": {
        "creation": {
            "codeDepositCost": "55400",
            "executionCost": "22211",
            "totalCost": "77611"
        },
        "external": {
            "getter()": "2268",
            "increment()": "24515",
            "setter(int256)": "22290"
        }
    }
}